{
  "contractName": "TimeBank",
  "abi": [
    {
      "constant": true,
      "inputs": [
        {
          "name": "",
          "type": "address"
        }
      ],
      "name": "funder",
      "outputs": [
        {
          "name": "services",
          "type": "string"
        },
        {
          "name": "serviceRequest",
          "type": "bool"
        },
        {
          "name": "hourDeposit",
          "type": "uint256"
        },
        {
          "name": "hourinitialiazed",
          "type": "bool"
        },
        {
          "name": "hoursNeeded",
          "type": "uint256"
        }
      ],
      "payable": false,
      "stateMutability": "view",
      "type": "function"
    },
    {
      "constant": true,
      "inputs": [
        {
          "name": "",
          "type": "uint256"
        }
      ],
      "name": "funderAccots",
      "outputs": [
        {
          "name": "",
          "type": "address"
        }
      ],
      "payable": false,
      "stateMutability": "view",
      "type": "function"
    },
    {
      "constant": false,
      "inputs": [
        {
          "name": "_address",
          "type": "address"
        },
        {
          "name": "hoursNeeded",
          "type": "uint256"
        }
      ],
      "name": "setHoursNeeded",
      "outputs": [],
      "payable": false,
      "stateMutability": "nonpayable",
      "type": "function"
    },
    {
      "constant": true,
      "inputs": [
        {
          "name": "_address",
          "type": "address"
        }
      ],
      "name": "getHoursNeeded",
      "outputs": [
        {
          "name": "",
          "type": "uint256"
        }
      ],
      "payable": false,
      "stateMutability": "view",
      "type": "function"
    },
    {
      "constant": false,
      "inputs": [
        {
          "name": "_address",
          "type": "address"
        }
      ],
      "name": "setHourDeposit",
      "outputs": [],
      "payable": false,
      "stateMutability": "nonpayable",
      "type": "function"
    },
    {
      "constant": true,
      "inputs": [
        {
          "name": "_address",
          "type": "address"
        }
      ],
      "name": "getHourDeposit",
      "outputs": [
        {
          "name": "",
          "type": "uint256"
        }
      ],
      "payable": false,
      "stateMutability": "view",
      "type": "function"
    },
    {
      "constant": true,
      "inputs": [
        {
          "name": "_address",
          "type": "address"
        },
        {
          "name": "_hoursNeeded",
          "type": "uint256"
        },
        {
          "name": "_hourDeposit",
          "type": "uint256"
        }
      ],
      "name": "changeHourBalance",
      "outputs": [
        {
          "name": "",
          "type": "uint256"
        }
      ],
      "payable": false,
      "stateMutability": "view",
      "type": "function"
    },
    {
      "constant": false,
      "inputs": [
        {
          "name": "_address",
          "type": "address"
        },
        {
          "name": "hoursNeeded",
          "type": "uint256"
        }
      ],
      "name": "increaseHourBalance",
      "outputs": [],
      "payable": false,
      "stateMutability": "nonpayable",
      "type": "function"
    },
    {
      "constant": false,
      "inputs": [
        {
          "name": "_address",
          "type": "address"
        }
      ],
      "name": "setHourInitialized",
      "outputs": [],
      "payable": false,
      "stateMutability": "nonpayable",
      "type": "function"
    },
    {
      "constant": true,
      "inputs": [
        {
          "name": "_address",
          "type": "address"
        }
      ],
      "name": "getHourInitialized",
      "outputs": [
        {
          "name": "",
          "type": "bool"
        }
      ],
      "payable": false,
      "stateMutability": "view",
      "type": "function"
    },
    {
      "constant": false,
      "inputs": [
        {
          "name": "_address",
          "type": "address"
        },
        {
          "name": "_services",
          "type": "string"
        },
        {
          "name": "_hoursNeeded",
          "type": "uint256"
        }
      ],
      "name": "addServices",
      "outputs": [],
      "payable": false,
      "stateMutability": "nonpayable",
      "type": "function"
    },
    {
      "constant": false,
      "inputs": [
        {
          "name": "_address",
          "type": "address"
        },
        {
          "name": "_services",
          "type": "string"
        },
        {
          "name": "_hoursNeeded",
          "type": "uint256"
        }
      ],
      "name": "clearServices",
      "outputs": [],
      "payable": false,
      "stateMutability": "nonpayable",
      "type": "function"
    },
    {
      "constant": false,
      "inputs": [
        {
          "name": "_address",
          "type": "address"
        },
        {
          "name": "_serviceRequest",
          "type": "bool"
        }
      ],
      "name": "requestServices",
      "outputs": [],
      "payable": false,
      "stateMutability": "nonpayable",
      "type": "function"
    },
    {
      "constant": true,
      "inputs": [
        {
          "name": "_address",
          "type": "address"
        }
      ],
      "name": "getServices",
      "outputs": [
        {
          "name": "",
          "type": "string"
        }
      ],
      "payable": false,
      "stateMutability": "view",
      "type": "function"
    },
    {
      "constant": true,
      "inputs": [
        {
          "name": "_address",
          "type": "address"
        }
      ],
      "name": "getServiceReques",
      "outputs": [
        {
          "name": "",
          "type": "bool"
        }
      ],
      "payable": false,
      "stateMutability": "view",
      "type": "function"
    },
    {
      "constant": true,
      "inputs": [],
      "name": "getFunderAccots",
      "outputs": [
        {
          "name": "",
          "type": "address[]"
        }
      ],
      "payable": false,
      "stateMutability": "view",
      "type": "function"
    },
    {
      "constant": false,
      "inputs": [
        {
          "name": "index",
          "type": "uint256"
        }
      ],
      "name": "deleteRepeatingAccount",
      "outputs": [],
      "payable": false,
      "stateMutability": "nonpayable",
      "type": "function"
    }
  ],
  "bytecode": "0x608060405234801561001057600080fd5b50611101806100206000396000f3006080604052600436106100f1576000357c0100000000000000000000000000000000000000000000000000000000900463ffffffff1680630dd58444146100f6578063125544f51461014357806312cd24be146101af5780631f046e771461028f5780632b594083146102e65780632ca4aacf1461033d5780632dc9d847146103d057806339cb9bc51461042b5780637ed193e6146104985780639ce6cef514610503578063a547f20714610530578063b2532a4514610573578063bbcff48c1461062f578063c07174f71461068a578063c3342991146106d7578063d6afd1bb14610726578063de84944714610769575b600080fd5b34801561010257600080fd5b50610141600480360381019080803573ffffffffffffffffffffffffffffffffffffffff169060200190929190803590602001909291905050506107fc565b005b34801561014f57600080fd5b50610158610889565b6040518080602001828103825283818151815260200191508051906020019060200280838360005b8381101561019b578082015181840152602081019050610180565b505050509050019250505060405180910390f35b3480156101bb57600080fd5b506101f0600480360381019080803573ffffffffffffffffffffffffffffffffffffffff169060200190929190505050610917565b60405180806020018615151515815260200185815260200184151515158152602001838152602001828103825287818151815260200191508051906020019080838360005b83811015610250578082015181840152602081019050610235565b50505050905090810190601f16801561027d5780820380516001836020036101000a031916815260200191505b50965050505050505060405180910390f35b34801561029b57600080fd5b506102d0600480360381019080803573ffffffffffffffffffffffffffffffffffffffff1690602001909291905050506109ff565b6040518082815260200191505060405180910390f35b3480156102f257600080fd5b50610327600480360381019080803573ffffffffffffffffffffffffffffffffffffffff169060200190929190505050610a4a565b6040518082815260200191505060405180910390f35b34801561034957600080fd5b506103ce600480360381019080803573ffffffffffffffffffffffffffffffffffffffff169060200190929190803590602001908201803590602001908080601f016020809104026020016040519081016040528093929190818152602001838380828437820191505050505050919291929080359060200190929190505050610a95565b005b3480156103dc57600080fd5b50610411600480360381019080803573ffffffffffffffffffffffffffffffffffffffff169060200190929190505050610b36565b604051808215151515815260200191505060405180910390f35b34801561043757600080fd5b5061045660048036038101908080359060200190929190505050610b8e565b604051808273ffffffffffffffffffffffffffffffffffffffff1673ffffffffffffffffffffffffffffffffffffffff16815260200191505060405180910390f35b3480156104a457600080fd5b506104ed600480360381019080803573ffffffffffffffffffffffffffffffffffffffff1690602001909291908035906020019092919080359060200190929190505050610bcc565b6040518082815260200191505060405180910390f35b34801561050f57600080fd5b5061052e60048036038101908080359060200190929190505050610c61565b005b34801561053c57600080fd5b50610571600480360381019080803573ffffffffffffffffffffffffffffffffffffffff169060200190929190505050610ca0565b005b34801561057f57600080fd5b506105b4600480360381019080803573ffffffffffffffffffffffffffffffffffffffff169060200190929190505050610cea565b6040518080602001828103825283818151815260200191508051906020019080838360005b838110156105f45780820151818401526020810190506105d9565b50505050905090810190601f1680156106215780820380516001836020036101000a031916815260200191505b509250505060405180910390f35b34801561063b57600080fd5b50610670600480360381019080803573ffffffffffffffffffffffffffffffffffffffff169060200190929190505050610dcd565b604051808215151515815260200191505060405180910390f35b34801561069657600080fd5b506106d5600480360381019080803573ffffffffffffffffffffffffffffffffffffffff16906020019092919080359060200190929190505050610e25565b005b3480156106e357600080fd5b50610724600480360381019080803573ffffffffffffffffffffffffffffffffffffffff169060200190929190803515159060200190929190505050610e6f565b005b34801561073257600080fd5b50610767600480360381019080803573ffffffffffffffffffffffffffffffffffffffff169060200190929190505050610ecc565b005b34801561077557600080fd5b506107fa600480360381019080803573ffffffffffffffffffffffffffffffffffffffff169060200190929190803590602001908201803590602001908080601f016020809104026020016040519081016040528093929190818152602001838380828437820191505050505050919291929080359060200190929190505050610f8f565b005b806000808473ffffffffffffffffffffffffffffffffffffffff1673ffffffffffffffffffffffffffffffffffffffff16815260200190815260200160002060020154016000808473ffffffffffffffffffffffffffffffffffffffff1673ffffffffffffffffffffffffffffffffffffffff168152602001908152602001600020600201819055505050565b6060600180548060200260200160405190810160405280929190818152602001828054801561090d57602002820191906000526020600020905b8160009054906101000a900473ffffffffffffffffffffffffffffffffffffffff1673ffffffffffffffffffffffffffffffffffffffff16815260200190600101908083116108c3575b5050505050905090565b6000602052806000526040600020600091509050806000018054600181600116156101000203166002900480601f0160208091040260200160405190810160405280929190818152602001828054600181600116156101000203166002900480156109c35780601f10610998576101008083540402835291602001916109c3565b820191906000526020600020905b8154815290600101906020018083116109a657829003601f168201915b5050505050908060010160009054906101000a900460ff16908060020154908060030160009054906101000a900460ff16908060040154905085565b60008060008373ffffffffffffffffffffffffffffffffffffffff1673ffffffffffffffffffffffffffffffffffffffff168152602001908152602001600020600201549050919050565b60008060008373ffffffffffffffffffffffffffffffffffffffff1673ffffffffffffffffffffffffffffffffffffffff168152602001908152602001600020600401549050919050565b816000808573ffffffffffffffffffffffffffffffffffffffff1673ffffffffffffffffffffffffffffffffffffffff1681526020019081526020016000206000019080519060200190610aea929190611030565b50806000808573ffffffffffffffffffffffffffffffffffffffff1673ffffffffffffffffffffffffffffffffffffffff16815260200190815260200160002060040181905550505050565b60008060008373ffffffffffffffffffffffffffffffffffffffff1673ffffffffffffffffffffffffffffffffffffffff16815260200190815260200160002060010160009054906101000a900460ff169050919050565b600181815481101515610b9d57fe5b906000526020600020016000915054906101000a900473ffffffffffffffffffffffffffffffffffffffff1681565b60008282036000808673ffffffffffffffffffffffffffffffffffffffff1673ffffffffffffffffffffffffffffffffffffffff168152602001908152602001600020600201819055506000808573ffffffffffffffffffffffffffffffffffffffff1673ffffffffffffffffffffffffffffffffffffffff1681526020019081526020016000206002015490509392505050565b600181815481101515610c7057fe5b9060005260206000200160006101000a81549073ffffffffffffffffffffffffffffffffffffffff021916905550565b600a6000808373ffffffffffffffffffffffffffffffffffffffff1673ffffffffffffffffffffffffffffffffffffffff1681526020019081526020016000206002018190555050565b60606000808373ffffffffffffffffffffffffffffffffffffffff1673ffffffffffffffffffffffffffffffffffffffff1681526020019081526020016000206000018054600181600116156101000203166002900480601f016020809104026020016040519081016040528092919081815260200182805460018160011615610100020316600290048015610dc15780601f10610d9657610100808354040283529160200191610dc1565b820191906000526020600020905b815481529060010190602001808311610da457829003601f168201915b50505050509050919050565b60008060008373ffffffffffffffffffffffffffffffffffffffff1673ffffffffffffffffffffffffffffffffffffffff16815260200190815260200160002060030160009054906101000a900460ff169050919050565b806000808473ffffffffffffffffffffffffffffffffffffffff1673ffffffffffffffffffffffffffffffffffffffff168152602001908152602001600020600401819055505050565b806000808473ffffffffffffffffffffffffffffffffffffffff1673ffffffffffffffffffffffffffffffffffffffff16815260200190815260200160002060010160006101000a81548160ff0219169083151502179055505050565b60016000808373ffffffffffffffffffffffffffffffffffffffff1673ffffffffffffffffffffffffffffffffffffffff16815260200190815260200160002060030160006101000a81548160ff02191690831515021790555060018190806001815401808255809150509060018203906000526020600020016000909192909190916101000a81548173ffffffffffffffffffffffffffffffffffffffff021916908373ffffffffffffffffffffffffffffffffffffffff1602179055505050565b816000808573ffffffffffffffffffffffffffffffffffffffff1673ffffffffffffffffffffffffffffffffffffffff1681526020019081526020016000206000019080519060200190610fe4929190611030565b50806000808573ffffffffffffffffffffffffffffffffffffffff1673ffffffffffffffffffffffffffffffffffffffff16815260200190815260200160002060040181905550505050565b828054600181600116156101000203166002900490600052602060002090601f016020900481019282601f1061107157805160ff191683800117855561109f565b8280016001018555821561109f579182015b8281111561109e578251825591602001919060010190611083565b5b5090506110ac91906110b0565b5090565b6110d291905b808211156110ce5760008160009055506001016110b6565b5090565b905600a165627a7a7230582007ff48ae9d1edaca21e1696694c346dc0c691434cb1c40293fc1e0c47787cb930029",
  "source": " pragma solidity ^0.4.24;\n\n/**\n * The TimeBank contract reward each user's servicec with hours\n */\ncontract TimeBank {\n\n  struct Funder {\n    string services;\n    bool   serviceRequest;\n    uint   hourDeposit;\n    bool   hourinitialiazed;\n    uint   hoursNeeded;\n\n  }\n  \n  mapping (address => Funder) public funder;\n  address[] public funderAccots;\n\n  function setHoursNeeded(address _address, uint hoursNeeded) public {\n    funder[_address].hoursNeeded = hoursNeeded;\n  }\n\n  function getHoursNeeded(address _address) view public returns(uint) {\n    return funder[_address].hoursNeeded;\n  }\n\n  function setHourDeposit(address _address) public {\n    funder[_address].hourDeposit = 10;\n  }\n\n  function getHourDeposit(address _address) view public returns(uint){\n  return funder[_address].hourDeposit;\n  }\n  \n  function changeHourBalance(address _address, uint _hoursNeeded, uint _hourDeposit) view public returns(uint){\n    funder[_address].hourDeposit = _hourDeposit - _hoursNeeded;\n    return funder[_address].hourDeposit;\n  }\n\n  function increaseHourBalance(address _address, uint hoursNeeded) public {\n    funder[_address].hourDeposit = funder[_address].hourDeposit + hoursNeeded;\n  }\n  \n  function setHourInitialized(address _address) {\n    funder[_address].hourinitialiazed = true;\n    funderAccots.push(_address);\n  }\n\n\n  function getHourInitialized (address _address) view public returns(bool){\n    return funder[_address].hourinitialiazed;\n  }\n  \n\n  function addServices(address _address, string _services, uint _hoursNeeded) public {  \n    funder[_address].services = _services;\n    funder[_address].hoursNeeded = _hoursNeeded;\n    \n  }\n\n  function clearServices(address _address, string _services, uint _hoursNeeded) public {\n    funder[_address].services = _services;\n    funder[_address].hoursNeeded = _hoursNeeded;\n  }\n\n  function requestServices(address _address, bool _serviceRequest) public {\n    funder[_address].serviceRequest = _serviceRequest;\n  }\n  function getServices(address _address) view public returns(string) {\n    return funder[_address].services;\n  }\n  \n  function getServiceReques(address _address) view public returns(bool) {\n    return funder[_address].serviceRequest;\n  }\n\n  function getFunderAccots() view public returns(address[]){\n    return funderAccots;\n  }\n\n  function deleteRepeatingAccount(uint index) public {\n    delete funderAccots[index];\n  }\n\n}\n\n\n",
  "sourcePath": "/Users/maclin/Sites/time_bank/contracts/TimeBank.sol",
  "compiler": {
    "name": "solc",
    "version": "0.4.24+commit.e67f0147.Emscripten.clang"
  },
  "schemaVersion": "2.0.1",
  "updatedAt": "2018-11-08T20:18:43.122Z"
}