{
  "contractName": "TimeBank",
  "abi": [
    {
      "constant": true,
      "inputs": [
        {
          "name": "",
          "type": "address"
        }
      ],
      "name": "funder",
      "outputs": [
        {
          "name": "services",
          "type": "string"
        },
        {
          "name": "serviceRequest",
          "type": "bool"
        },
        {
          "name": "hourDeposit",
          "type": "uint256"
        }
      ],
      "payable": false,
      "stateMutability": "view",
      "type": "function"
    },
    {
      "constant": true,
      "inputs": [
        {
          "name": "",
          "type": "uint256"
        }
      ],
      "name": "funderAccots",
      "outputs": [
        {
          "name": "",
          "type": "address"
        }
      ],
      "payable": false,
      "stateMutability": "view",
      "type": "function"
    },
    {
      "constant": false,
      "inputs": [
        {
          "name": "_address",
          "type": "address"
        }
      ],
      "name": "setHourDeposit",
      "outputs": [],
      "payable": false,
      "stateMutability": "nonpayable",
      "type": "function"
    },
    {
      "constant": false,
      "inputs": [
        {
          "name": "_address",
          "type": "address"
        },
        {
          "name": "_services",
          "type": "string"
        }
      ],
      "name": "addServices",
      "outputs": [],
      "payable": false,
      "stateMutability": "nonpayable",
      "type": "function"
    },
    {
      "constant": false,
      "inputs": [
        {
          "name": "_address",
          "type": "address"
        },
        {
          "name": "_serviceRequest",
          "type": "bool"
        }
      ],
      "name": "requestServices",
      "outputs": [],
      "payable": false,
      "stateMutability": "nonpayable",
      "type": "function"
    },
    {
      "constant": true,
      "inputs": [
        {
          "name": "_address",
          "type": "address"
        }
      ],
      "name": "getServices",
      "outputs": [
        {
          "name": "",
          "type": "string"
        }
      ],
      "payable": false,
      "stateMutability": "view",
      "type": "function"
    },
    {
      "constant": true,
      "inputs": [
        {
          "name": "_address",
          "type": "address"
        }
      ],
      "name": "getServiceReques",
      "outputs": [
        {
          "name": "",
          "type": "bool"
        }
      ],
      "payable": false,
      "stateMutability": "view",
      "type": "function"
    },
    {
      "constant": true,
      "inputs": [],
      "name": "getFunderAccots",
      "outputs": [
        {
          "name": "",
          "type": "address[]"
        }
      ],
      "payable": false,
      "stateMutability": "view",
      "type": "function"
    }
  ],
  "bytecode": "0x608060405234801561001057600080fd5b5061097a806100206000396000f30060806040526004361061008e576000357c0100000000000000000000000000000000000000000000000000000000900463ffffffff168063125544f51461009357806312cd24be146100ff5780632dc9d847146101cd57806339cb9bc514610228578063680c968114610295578063a547f2071461031e578063b2532a4514610361578063c33429911461041d575b600080fd5b34801561009f57600080fd5b506100a861046c565b6040518080602001828103825283818151815260200191508051906020019060200280838360005b838110156100eb5780820151818401526020810190506100d0565b505050509050019250505060405180910390f35b34801561010b57600080fd5b50610140600480360381019080803573ffffffffffffffffffffffffffffffffffffffff1690602001909291905050506104fa565b604051808060200184151515158152602001838152602001828103825285818151815260200191508051906020019080838360005b83811015610190578082015181840152602081019050610175565b50505050905090810190601f1680156101bd5780820380516001836020036101000a031916815260200191505b5094505050505060405180910390f35b3480156101d957600080fd5b5061020e600480360381019080803573ffffffffffffffffffffffffffffffffffffffff1690602001909291905050506105c9565b604051808215151515815260200191505060405180910390f35b34801561023457600080fd5b5061025360048036038101908080359060200190929190505050610621565b604051808273ffffffffffffffffffffffffffffffffffffffff1673ffffffffffffffffffffffffffffffffffffffff16815260200191505060405180910390f35b3480156102a157600080fd5b5061031c600480360381019080803573ffffffffffffffffffffffffffffffffffffffff169060200190929190803590602001908201803590602001908080601f016020809104026020016040519081016040528093929190818152602001838380828437820191505050505050919291929050505061065f565b005b34801561032a57600080fd5b5061035f600480360381019080803573ffffffffffffffffffffffffffffffffffffffff16906020019092919050505061071f565b005b34801561036d57600080fd5b506103a2600480360381019080803573ffffffffffffffffffffffffffffffffffffffff169060200190929190505050610769565b6040518080602001828103825283818151815260200191508051906020019080838360005b838110156103e25780820151818401526020810190506103c7565b50505050905090810190601f16801561040f5780820380516001836020036101000a031916815260200191505b509250505060405180910390f35b34801561042957600080fd5b5061046a600480360381019080803573ffffffffffffffffffffffffffffffffffffffff16906020019092919080351515906020019092919050505061084c565b005b606060018054806020026020016040519081016040528092919081815260200182805480156104f057602002820191906000526020600020905b8160009054906101000a900473ffffffffffffffffffffffffffffffffffffffff1673ffffffffffffffffffffffffffffffffffffffff16815260200190600101908083116104a6575b5050505050905090565b6000602052806000526040600020600091509050806000018054600181600116156101000203166002900480601f0160208091040260200160405190810160405280929190818152602001828054600181600116156101000203166002900480156105a65780601f1061057b576101008083540402835291602001916105a6565b820191906000526020600020905b81548152906001019060200180831161058957829003601f168201915b5050505050908060010160009054906101000a900460ff16908060020154905083565b60008060008373ffffffffffffffffffffffffffffffffffffffff1673ffffffffffffffffffffffffffffffffffffffff16815260200190815260200160002060010160009054906101000a900460ff169050919050565b60018181548110151561063057fe5b906000526020600020016000915054906101000a900473ffffffffffffffffffffffffffffffffffffffff1681565b806000808473ffffffffffffffffffffffffffffffffffffffff1673ffffffffffffffffffffffffffffffffffffffff16815260200190815260200160002060000190805190602001906106b49291906108a9565b5060018290806001815401808255809150509060018203906000526020600020016000909192909190916101000a81548173ffffffffffffffffffffffffffffffffffffffff021916908373ffffffffffffffffffffffffffffffffffffffff160217905550505050565b600a6000808373ffffffffffffffffffffffffffffffffffffffff1673ffffffffffffffffffffffffffffffffffffffff1681526020019081526020016000206002018190555050565b60606000808373ffffffffffffffffffffffffffffffffffffffff1673ffffffffffffffffffffffffffffffffffffffff1681526020019081526020016000206000018054600181600116156101000203166002900480601f0160208091040260200160405190810160405280929190818152602001828054600181600116156101000203166002900480156108405780601f1061081557610100808354040283529160200191610840565b820191906000526020600020905b81548152906001019060200180831161082357829003601f168201915b50505050509050919050565b806000808473ffffffffffffffffffffffffffffffffffffffff1673ffffffffffffffffffffffffffffffffffffffff16815260200190815260200160002060010160006101000a81548160ff0219169083151502179055505050565b828054600181600116156101000203166002900490600052602060002090601f016020900481019282601f106108ea57805160ff1916838001178555610918565b82800160010185558215610918579182015b828111156109175782518255916020019190600101906108fc565b5b5090506109259190610929565b5090565b61094b91905b8082111561094757600081600090555060010161092f565b5090565b905600a165627a7a723058204a9cb3e7c909d57ebb4168f5ae7677ab548c32a1202c99d12920e17f555e42ca0029",
  "source": "pragma solidity ^0.4.24;\n\n/**\n * The TimeBank contract reward each user's servicec with hours\n */\ncontract TimeBank {\n\n  struct Funder {\n    string services;\n    bool   serviceRequest;\n    uint   hourDeposit;\n  }\n  \n  mapping (address => Funder) public funder;\n  address[] public funderAccots;\n\n  function setHourDeposit(address _address) public {\n    funder[_address].hourDeposit = 10;\n  }\n  \n\n  function addServices(address _address, string _services) public {  \n    funder[_address].services = _services;\n    funderAccots.push(_address);\n  }\n\n  function requestServices(address _address, bool _serviceRequest) public {\n    funder[_address].serviceRequest = _serviceRequest;\n  }\n  function getServices(address _address) view public returns(string) {\n    return funder[_address].services;\n  }\n  \n  function getServiceReques(address _address) view public returns(bool) {\n    return funder[_address].serviceRequest;\n  }\n\n  function getFunderAccots() view public returns(address[]){\n    return funderAccots;\n  }\n\n}\n\n\n",
  "sourcePath": "/Users/maclin/Sites/time_bank/contracts/TimeBank.sol",
  "compiler": {
    "name": "solc",
    "version": "0.4.24+commit.e67f0147.Emscripten.clang"
  },
  "schemaVersion": "2.0.1",
  "updatedAt": "2018-10-20T20:06:35.724Z"
}