{
  "contractName": "TimeBank",
  "abi": [
    {
      "constant": true,
      "inputs": [
        {
          "name": "",
          "type": "address"
        }
      ],
      "name": "funder",
      "outputs": [
        {
          "name": "services",
          "type": "string"
        },
        {
          "name": "serviceRequest",
          "type": "bool"
        },
        {
          "name": "hourDeposit",
          "type": "uint256"
        },
        {
          "name": "hourinitialiazed",
          "type": "bool"
        },
        {
          "name": "hoursNeeded",
          "type": "uint256"
        }
      ],
      "payable": false,
      "stateMutability": "view",
      "type": "function"
    },
    {
      "constant": true,
      "inputs": [
        {
          "name": "",
          "type": "uint256"
        }
      ],
      "name": "funderAccots",
      "outputs": [
        {
          "name": "",
          "type": "address"
        }
      ],
      "payable": false,
      "stateMutability": "view",
      "type": "function"
    },
    {
      "constant": false,
      "inputs": [
        {
          "name": "_address",
          "type": "address"
        },
        {
          "name": "hoursNeeded",
          "type": "uint256"
        }
      ],
      "name": "setHoursNeeded",
      "outputs": [],
      "payable": false,
      "stateMutability": "nonpayable",
      "type": "function"
    },
    {
      "constant": true,
      "inputs": [
        {
          "name": "_address",
          "type": "address"
        }
      ],
      "name": "getHoursNeeded",
      "outputs": [
        {
          "name": "",
          "type": "uint256"
        }
      ],
      "payable": false,
      "stateMutability": "view",
      "type": "function"
    },
    {
      "constant": false,
      "inputs": [
        {
          "name": "_address",
          "type": "address"
        }
      ],
      "name": "setHourDeposit",
      "outputs": [],
      "payable": false,
      "stateMutability": "nonpayable",
      "type": "function"
    },
    {
      "constant": true,
      "inputs": [
        {
          "name": "_address",
          "type": "address"
        }
      ],
      "name": "getHourDeposit",
      "outputs": [
        {
          "name": "",
          "type": "uint256"
        }
      ],
      "payable": false,
      "stateMutability": "view",
      "type": "function"
    },
    {
      "constant": false,
      "inputs": [
        {
          "name": "_address",
          "type": "address"
        }
      ],
      "name": "setHourInitialized",
      "outputs": [],
      "payable": false,
      "stateMutability": "nonpayable",
      "type": "function"
    },
    {
      "constant": true,
      "inputs": [
        {
          "name": "_address",
          "type": "address"
        }
      ],
      "name": "getHourInitialized",
      "outputs": [
        {
          "name": "",
          "type": "bool"
        }
      ],
      "payable": false,
      "stateMutability": "view",
      "type": "function"
    },
    {
      "constant": false,
      "inputs": [
        {
          "name": "_address",
          "type": "address"
        },
        {
          "name": "_services",
          "type": "string"
        }
      ],
      "name": "addServices",
      "outputs": [],
      "payable": false,
      "stateMutability": "nonpayable",
      "type": "function"
    },
    {
      "constant": false,
      "inputs": [
        {
          "name": "_address",
          "type": "address"
        },
        {
          "name": "_serviceRequest",
          "type": "bool"
        }
      ],
      "name": "requestServices",
      "outputs": [],
      "payable": false,
      "stateMutability": "nonpayable",
      "type": "function"
    },
    {
      "constant": true,
      "inputs": [
        {
          "name": "_address",
          "type": "address"
        }
      ],
      "name": "getServices",
      "outputs": [
        {
          "name": "",
          "type": "string"
        }
      ],
      "payable": false,
      "stateMutability": "view",
      "type": "function"
    },
    {
      "constant": true,
      "inputs": [
        {
          "name": "_address",
          "type": "address"
        }
      ],
      "name": "getServiceReques",
      "outputs": [
        {
          "name": "",
          "type": "bool"
        }
      ],
      "payable": false,
      "stateMutability": "view",
      "type": "function"
    },
    {
      "constant": true,
      "inputs": [],
      "name": "getFunderAccots",
      "outputs": [
        {
          "name": "",
          "type": "address[]"
        }
      ],
      "payable": false,
      "stateMutability": "view",
      "type": "function"
    }
  ],
  "bytecode": "0x608060405234801561001057600080fd5b50610d0a806100206000396000f3006080604052600436106100c5576000357c0100000000000000000000000000000000000000000000000000000000900463ffffffff168063125544f5146100ca57806312cd24be146101365780631f046e77146102165780632b5940831461026d5780632dc9d847146102c457806339cb9bc51461031f578063680c96811461038c578063a547f20714610415578063b2532a4514610458578063bbcff48c14610514578063c07174f71461056f578063c3342991146105bc578063d6afd1bb1461060b575b600080fd5b3480156100d657600080fd5b506100df61064e565b6040518080602001828103825283818151815260200191508051906020019060200280838360005b83811015610122578082015181840152602081019050610107565b505050509050019250505060405180910390f35b34801561014257600080fd5b50610177600480360381019080803573ffffffffffffffffffffffffffffffffffffffff1690602001909291905050506106dc565b60405180806020018615151515815260200185815260200184151515158152602001838152602001828103825287818151815260200191508051906020019080838360005b838110156101d75780820151818401526020810190506101bc565b50505050905090810190601f1680156102045780820380516001836020036101000a031916815260200191505b50965050505050505060405180910390f35b34801561022257600080fd5b50610257600480360381019080803573ffffffffffffffffffffffffffffffffffffffff1690602001909291905050506107c4565b6040518082815260200191505060405180910390f35b34801561027957600080fd5b506102ae600480360381019080803573ffffffffffffffffffffffffffffffffffffffff16906020019092919050505061080f565b6040518082815260200191505060405180910390f35b3480156102d057600080fd5b50610305600480360381019080803573ffffffffffffffffffffffffffffffffffffffff16906020019092919050505061085a565b604051808215151515815260200191505060405180910390f35b34801561032b57600080fd5b5061034a600480360381019080803590602001909291905050506108b2565b604051808273ffffffffffffffffffffffffffffffffffffffff1673ffffffffffffffffffffffffffffffffffffffff16815260200191505060405180910390f35b34801561039857600080fd5b50610413600480360381019080803573ffffffffffffffffffffffffffffffffffffffff169060200190929190803590602001908201803590602001908080601f01602080910402602001604051908101604052809392919081815260200183838082843782019150505050505091929192905050506108f0565b005b34801561042157600080fd5b50610456600480360381019080803573ffffffffffffffffffffffffffffffffffffffff1690602001909291905050506109b0565b005b34801561046457600080fd5b50610499600480360381019080803573ffffffffffffffffffffffffffffffffffffffff1690602001909291905050506109fa565b6040518080602001828103825283818151815260200191508051906020019080838360005b838110156104d95780820151818401526020810190506104be565b50505050905090810190601f1680156105065780820380516001836020036101000a031916815260200191505b509250505060405180910390f35b34801561052057600080fd5b50610555600480360381019080803573ffffffffffffffffffffffffffffffffffffffff169060200190929190505050610add565b604051808215151515815260200191505060405180910390f35b34801561057b57600080fd5b506105ba600480360381019080803573ffffffffffffffffffffffffffffffffffffffff16906020019092919080359060200190929190505050610b35565b005b3480156105c857600080fd5b50610609600480360381019080803573ffffffffffffffffffffffffffffffffffffffff169060200190929190803515159060200190929190505050610b7f565b005b34801561061757600080fd5b5061064c600480360381019080803573ffffffffffffffffffffffffffffffffffffffff169060200190929190505050610bdc565b005b606060018054806020026020016040519081016040528092919081815260200182805480156106d257602002820191906000526020600020905b8160009054906101000a900473ffffffffffffffffffffffffffffffffffffffff1673ffffffffffffffffffffffffffffffffffffffff1681526020019060010190808311610688575b5050505050905090565b6000602052806000526040600020600091509050806000018054600181600116156101000203166002900480601f0160208091040260200160405190810160405280929190818152602001828054600181600116156101000203166002900480156107885780601f1061075d57610100808354040283529160200191610788565b820191906000526020600020905b81548152906001019060200180831161076b57829003601f168201915b5050505050908060010160009054906101000a900460ff16908060020154908060030160009054906101000a900460ff16908060040154905085565b60008060008373ffffffffffffffffffffffffffffffffffffffff1673ffffffffffffffffffffffffffffffffffffffff168152602001908152602001600020600201549050919050565b60008060008373ffffffffffffffffffffffffffffffffffffffff1673ffffffffffffffffffffffffffffffffffffffff168152602001908152602001600020600401549050919050565b60008060008373ffffffffffffffffffffffffffffffffffffffff1673ffffffffffffffffffffffffffffffffffffffff16815260200190815260200160002060010160009054906101000a900460ff169050919050565b6001818154811015156108c157fe5b906000526020600020016000915054906101000a900473ffffffffffffffffffffffffffffffffffffffff1681565b806000808473ffffffffffffffffffffffffffffffffffffffff1673ffffffffffffffffffffffffffffffffffffffff1681526020019081526020016000206000019080519060200190610945929190610c39565b5060018290806001815401808255809150509060018203906000526020600020016000909192909190916101000a81548173ffffffffffffffffffffffffffffffffffffffff021916908373ffffffffffffffffffffffffffffffffffffffff160217905550505050565b600a6000808373ffffffffffffffffffffffffffffffffffffffff1673ffffffffffffffffffffffffffffffffffffffff1681526020019081526020016000206002018190555050565b60606000808373ffffffffffffffffffffffffffffffffffffffff1673ffffffffffffffffffffffffffffffffffffffff1681526020019081526020016000206000018054600181600116156101000203166002900480601f016020809104026020016040519081016040528092919081815260200182805460018160011615610100020316600290048015610ad15780601f10610aa657610100808354040283529160200191610ad1565b820191906000526020600020905b815481529060010190602001808311610ab457829003601f168201915b50505050509050919050565b60008060008373ffffffffffffffffffffffffffffffffffffffff1673ffffffffffffffffffffffffffffffffffffffff16815260200190815260200160002060030160009054906101000a900460ff169050919050565b806000808473ffffffffffffffffffffffffffffffffffffffff1673ffffffffffffffffffffffffffffffffffffffff168152602001908152602001600020600401819055505050565b806000808473ffffffffffffffffffffffffffffffffffffffff1673ffffffffffffffffffffffffffffffffffffffff16815260200190815260200160002060010160006101000a81548160ff0219169083151502179055505050565b60016000808373ffffffffffffffffffffffffffffffffffffffff1673ffffffffffffffffffffffffffffffffffffffff16815260200190815260200160002060030160006101000a81548160ff02191690831515021790555050565b828054600181600116156101000203166002900490600052602060002090601f016020900481019282601f10610c7a57805160ff1916838001178555610ca8565b82800160010185558215610ca8579182015b82811115610ca7578251825591602001919060010190610c8c565b5b509050610cb59190610cb9565b5090565b610cdb91905b80821115610cd7576000816000905550600101610cbf565b5090565b905600a165627a7a723058207fd694203cabcf91d95ff8c3155a3d44e7fe1c236067af8217aa8b3fc2da82590029",
  "source": "pragma solidity ^0.4.24;\n\n/**\n * The TimeBank contract reward each user's servicec with hours\n */\ncontract TimeBank {\n\n  struct Funder {\n    string services;\n    bool   serviceRequest;\n    uint   hourDeposit;\n    bool   hourinitialiazed;\n    uint   hoursNeeded;\n  }\n  \n  mapping (address => Funder) public funder;\n  address[] public funderAccots;\n\n  function setHoursNeeded(address _address, uint hoursNeeded) public {\n    funder[_address].hoursNeeded = hoursNeeded;\n  }\n\n  function getHoursNeeded(address _address) view public returns(uint) {\n    return funder[_address].hoursNeeded;\n  }\n\n  function setHourDeposit(address _address) public {\n    funder[_address].hourDeposit = 10;\n  }\n  \n  function getHourDeposit(address _address) view public returns(uint){\n    return funder[_address].hourDeposit;\n  }\n  \n  function setHourInitialized(address _address) {\n    funder[_address].hourinitialiazed = true;\n  }\n\n\n  function getHourInitialized (address _address) view public returns(bool){\n    return funder[_address].hourinitialiazed;\n  }\n  \n  \n\n\n  function addServices(address _address, string _services) public {  \n    funder[_address].services = _services;\n    funderAccots.push(_address);\n  }\n\n  function requestServices(address _address, bool _serviceRequest) public {\n    funder[_address].serviceRequest = _serviceRequest;\n  }\n  function getServices(address _address) view public returns(string) {\n    return funder[_address].services;\n  }\n  \n  function getServiceReques(address _address) view public returns(bool) {\n    return funder[_address].serviceRequest;\n  }\n\n  function getFunderAccots() view public returns(address[]){\n    return funderAccots;\n  }\n\n}\n\n\n",
  "sourcePath": "/Users/maclin/Sites/time_bank/contracts/TimeBank.sol",
  "compiler": {
    "name": "solc",
    "version": "0.4.24+commit.e67f0147.Emscripten.clang"
  },
  "schemaVersion": "2.0.1",
  "updatedAt": "2018-10-21T16:11:44.554Z"
}