{
  "contractName": "TimeBank",
  "abi": [
    {
      "constant": true,
      "inputs": [
        {
          "name": "",
          "type": "uint256"
        }
      ],
      "name": "userAccounts",
      "outputs": [
        {
          "name": "",
          "type": "address"
        }
      ],
      "payable": false,
      "stateMutability": "view",
      "type": "function"
    },
    {
      "constant": true,
      "inputs": [
        {
          "name": "",
          "type": "address"
        }
      ],
      "name": "user",
      "outputs": [
        {
          "name": "service",
          "type": "string"
        },
        {
          "name": "deposit",
          "type": "uint8"
        },
        {
          "name": "hoursNeeded",
          "type": "uint8"
        },
        {
          "name": "account",
          "type": "address"
        },
        {
          "name": "initialized",
          "type": "bool"
        },
        {
          "name": "help",
          "type": "bool"
        }
      ],
      "payable": false,
      "stateMutability": "view",
      "type": "function"
    },
    {
      "anonymous": false,
      "inputs": [
        {
          "indexed": true,
          "name": "_initialized",
          "type": "bool"
        }
      ],
      "name": "initializedEvent",
      "type": "event"
    },
    {
      "constant": false,
      "inputs": [
        {
          "name": "_service",
          "type": "string"
        },
        {
          "name": "_deposit",
          "type": "uint8"
        },
        {
          "name": "_hoursNeeded",
          "type": "uint8"
        },
        {
          "name": "_account",
          "type": "address"
        },
        {
          "name": "_initialized",
          "type": "bool"
        },
        {
          "name": "_help",
          "type": "bool"
        }
      ],
      "name": "addUser",
      "outputs": [],
      "payable": false,
      "stateMutability": "nonpayable",
      "type": "function"
    },
    {
      "constant": false,
      "inputs": [
        {
          "name": "_service",
          "type": "string"
        },
        {
          "name": "_account",
          "type": "address"
        },
        {
          "name": "_hoursNeeded",
          "type": "uint8"
        }
      ],
      "name": "setServiceHour",
      "outputs": [],
      "payable": false,
      "stateMutability": "nonpayable",
      "type": "function"
    },
    {
      "constant": false,
      "inputs": [
        {
          "name": "_help",
          "type": "bool"
        },
        {
          "name": "_account",
          "type": "address"
        }
      ],
      "name": "setHelp",
      "outputs": [],
      "payable": false,
      "stateMutability": "nonpayable",
      "type": "function"
    },
    {
      "constant": true,
      "inputs": [
        {
          "name": "_account",
          "type": "address"
        }
      ],
      "name": "getHelp",
      "outputs": [
        {
          "name": "",
          "type": "bool"
        }
      ],
      "payable": false,
      "stateMutability": "view",
      "type": "function"
    },
    {
      "constant": true,
      "inputs": [],
      "name": "getUserAccounts",
      "outputs": [
        {
          "name": "",
          "type": "address[]"
        }
      ],
      "payable": false,
      "stateMutability": "view",
      "type": "function"
    }
  ],
  "bytecode": "0x608060405234801561001057600080fd5b50610b3c806100206000396000f300608060405260043610610083576000357c0100000000000000000000000000000000000000000000000000000000900463ffffffff168063616d50581461008857806381e7e20e146100f5578063a43e567a14610214578063a7a0215b14610280578063bfbf9177146102db578063d1672ee514610371578063f2d3c6a2146103c0575b600080fd5b34801561009457600080fd5b506100b36004803603810190808035906020019092919050505061047b565b604051808273ffffffffffffffffffffffffffffffffffffffff1673ffffffffffffffffffffffffffffffffffffffff16815260200191505060405180910390f35b34801561010157600080fd5b50610136600480360381019080803573ffffffffffffffffffffffffffffffffffffffff1690602001909291905050506104b9565b60405180806020018760ff1660ff1681526020018660ff1660ff1681526020018573ffffffffffffffffffffffffffffffffffffffff1673ffffffffffffffffffffffffffffffffffffffff1681526020018415151515815260200183151515158152602001828103825288818151815260200191508051906020019080838360005b838110156101d45780820151818401526020810190506101b9565b50505050905090810190601f1680156102015780820380516001836020036101000a031916815260200191505b5097505050505050505060405180910390f35b34801561022057600080fd5b506102296105e1565b6040518080602001828103825283818151815260200191508051906020019060200280838360005b8381101561026c578082015181840152602081019050610251565b505050509050019250505060405180910390f35b34801561028c57600080fd5b506102c1600480360381019080803573ffffffffffffffffffffffffffffffffffffffff16906020019092919050505061066f565b604051808215151515815260200191505060405180910390f35b3480156102e757600080fd5b5061036f600480360381019080803590602001908201803590602001908080601f0160208091040260200160405190810160405280939291908181526020018383808284378201915050505050509192919290803573ffffffffffffffffffffffffffffffffffffffff169060200190929190803560ff1690602001909291905050506106c7565b005b34801561037d57600080fd5b506103be600480360381019080803515159060200190929190803573ffffffffffffffffffffffffffffffffffffffff16906020019092919050505061077c565b005b3480156103cc57600080fd5b50610479600480360381019080803590602001908201803590602001908080601f0160208091040260200160405190810160405280939291908181526020018383808284378201915050505050509192919290803560ff169060200190929190803560ff169060200190929190803573ffffffffffffffffffffffffffffffffffffffff1690602001909291908035151590602001909291908035151590602001909291905050506107d9565b005b60018181548110151561048a57fe5b906000526020600020016000915054906101000a900473ffffffffffffffffffffffffffffffffffffffff1681565b6000602052806000526040600020600091509050806000018054600181600116156101000203166002900480601f0160208091040260200160405190810160405280929190818152602001828054600181600116156101000203166002900480156105655780601f1061053a57610100808354040283529160200191610565565b820191906000526020600020905b81548152906001019060200180831161054857829003601f168201915b5050505050908060010160009054906101000a900460ff16908060010160019054906101000a900460ff16908060010160029054906101000a900473ffffffffffffffffffffffffffffffffffffffff16908060010160169054906101000a900460ff16908060010160179054906101000a900460ff16905086565b6060600180548060200260200160405190810160405280929190818152602001828054801561066557602002820191906000526020600020905b8160009054906101000a900473ffffffffffffffffffffffffffffffffffffffff1673ffffffffffffffffffffffffffffffffffffffff168152602001906001019080831161061b575b5050505050905090565b60008060008373ffffffffffffffffffffffffffffffffffffffff1673ffffffffffffffffffffffffffffffffffffffff16815260200190815260200160002060010160179054906101000a900460ff169050919050565b826000808473ffffffffffffffffffffffffffffffffffffffff1673ffffffffffffffffffffffffffffffffffffffff168152602001908152602001600020600001908051906020019061071c9291906109eb565b50806000808473ffffffffffffffffffffffffffffffffffffffff1673ffffffffffffffffffffffffffffffffffffffff16815260200190815260200160002060010160016101000a81548160ff021916908360ff160217905550505050565b816000808373ffffffffffffffffffffffffffffffffffffffff1673ffffffffffffffffffffffffffffffffffffffff16815260200190815260200160002060010160176101000a81548160ff0219169083151502179055505050565b60c0604051908101604052808781526020018660ff1681526020018560ff1681526020018473ffffffffffffffffffffffffffffffffffffffff16815260200183151581526020018215158152506000808573ffffffffffffffffffffffffffffffffffffffff1673ffffffffffffffffffffffffffffffffffffffff1681526020019081526020016000206000820151816000019080519060200190610881929190610a6b565b5060208201518160010160006101000a81548160ff021916908360ff16021790555060408201518160010160016101000a81548160ff021916908360ff16021790555060608201518160010160026101000a81548173ffffffffffffffffffffffffffffffffffffffff021916908373ffffffffffffffffffffffffffffffffffffffff16021790555060808201518160010160166101000a81548160ff02191690831515021790555060a08201518160010160176101000a81548160ff0219169083151502179055509050508115157f628d5b88a841bd962d7e59afbf2296c31aa505a89e43490aa39eaa1ca510d0d160405160405180910390a260018390806001815401808255809150509060018203906000526020600020016000909192909190916101000a81548173ffffffffffffffffffffffffffffffffffffffff021916908373ffffffffffffffffffffffffffffffffffffffff16021790555050505050505050565b828054600181600116156101000203166002900490600052602060002090601f016020900481019282601f10610a2c57805160ff1916838001178555610a5a565b82800160010185558215610a5a579182015b82811115610a59578251825591602001919060010190610a3e565b5b509050610a679190610aeb565b5090565b828054600181600116156101000203166002900490600052602060002090601f016020900481019282601f10610aac57805160ff1916838001178555610ada565b82800160010185558215610ada579182015b82811115610ad9578251825591602001919060010190610abe565b5b509050610ae79190610aeb565b5090565b610b0d91905b80821115610b09576000816000905550600101610af1565b5090565b905600a165627a7a7230582088968fa0552b6e53b41b4c832b2d892c0304ffd64e7692db738583b9a3b0d2b00029",
  "source": " pragma solidity ^0.4.24;\n\n/**\n * \n */\ncontract TimeBank{\n  struct User {\n    string service;\n    uint8 deposit;\n    uint8 hoursNeeded;\n    address account;\n    bool initialized;\n    bool help;\n  }\n  event initializedEvent (\n    bool indexed _initialized\n    );\n  mapping (address => User) public user;\n  address[] public userAccounts;\n  \n  function addUser(string _service, uint8 _deposit, uint8 _hoursNeeded, address _account, bool _initialized, bool _help) public {\n    user[_account] = User(_service, _deposit, _hoursNeeded, _account, _initialized, _help);\n    emit initializedEvent(_initialized);\n    userAccounts.push(_account);\n  }\n  function setServiceHour(string _service, address _account, uint8 _hoursNeeded) public {\n    user[_account].service = _service;\n    user[_account].hoursNeeded = _hoursNeeded;\n  }\n  function setHelp(bool _help, address _account) public {\n    user[_account].help = _help;\n   }\n   function getHelp(address _account) public view returns(bool){\n    return user[_account].help;\n   }\n  function getUserAccounts() public view returns(address[]) {\n    return userAccounts;\n  }\n\n}\n\n\n",
  "sourcePath": "/Users/maclin/Sites/time_bank/contracts/TimeBank.sol",
  "compiler": {
    "name": "solc",
    "version": "0.4.24+commit.e67f0147.Emscripten.clang"
  },
  "schemaVersion": "2.0.1",
  "updatedAt": "2018-11-24T00:03:49.018Z"
}