{
  "contractName": "TimeBank",
  "abi": [
    {
      "constant": true,
      "inputs": [
        {
          "name": "",
          "type": "uint256"
        }
      ],
      "name": "userAccounts",
      "outputs": [
        {
          "name": "",
          "type": "address"
        }
      ],
      "payable": false,
      "stateMutability": "view",
      "type": "function"
    },
    {
      "constant": true,
      "inputs": [
        {
          "name": "",
          "type": "address"
        }
      ],
      "name": "user",
      "outputs": [
        {
          "name": "service",
          "type": "string"
        },
        {
          "name": "deposit",
          "type": "uint8"
        },
        {
          "name": "hoursNeeded",
          "type": "uint8"
        },
        {
          "name": "account",
          "type": "address"
        },
        {
          "name": "initialized",
          "type": "bool"
        },
        {
          "name": "help",
          "type": "bool"
        },
        {
          "name": "provider",
          "type": "address"
        },
        {
          "name": "check",
          "type": "bool"
        }
      ],
      "payable": false,
      "stateMutability": "view",
      "type": "function"
    },
    {
      "anonymous": false,
      "inputs": [
        {
          "indexed": true,
          "name": "_initialized",
          "type": "bool"
        }
      ],
      "name": "initializedEvent",
      "type": "event"
    },
    {
      "anonymous": false,
      "inputs": [
        {
          "indexed": true,
          "name": "deposit",
          "type": "uint8"
        }
      ],
      "name": "balanceChange",
      "type": "event"
    },
    {
      "constant": false,
      "inputs": [
        {
          "name": "_service",
          "type": "string"
        },
        {
          "name": "_deposit",
          "type": "uint8"
        },
        {
          "name": "_hoursNeeded",
          "type": "uint8"
        },
        {
          "name": "_account",
          "type": "address"
        },
        {
          "name": "_initialized",
          "type": "bool"
        },
        {
          "name": "_help",
          "type": "bool"
        },
        {
          "name": "_provider",
          "type": "address"
        },
        {
          "name": "_check",
          "type": "bool"
        }
      ],
      "name": "addUser",
      "outputs": [],
      "payable": false,
      "stateMutability": "nonpayable",
      "type": "function"
    },
    {
      "constant": false,
      "inputs": [
        {
          "name": "_service",
          "type": "string"
        },
        {
          "name": "_account",
          "type": "address"
        },
        {
          "name": "_hoursNeeded",
          "type": "uint8"
        }
      ],
      "name": "setServiceHour",
      "outputs": [],
      "payable": false,
      "stateMutability": "nonpayable",
      "type": "function"
    },
    {
      "constant": false,
      "inputs": [
        {
          "name": "_help",
          "type": "bool"
        },
        {
          "name": "_account",
          "type": "address"
        },
        {
          "name": "_provider",
          "type": "address"
        }
      ],
      "name": "setHelpProvider",
      "outputs": [],
      "payable": false,
      "stateMutability": "nonpayable",
      "type": "function"
    },
    {
      "constant": true,
      "inputs": [
        {
          "name": "_account",
          "type": "address"
        }
      ],
      "name": "getHelp",
      "outputs": [
        {
          "name": "",
          "type": "bool"
        }
      ],
      "payable": false,
      "stateMutability": "view",
      "type": "function"
    },
    {
      "constant": true,
      "inputs": [],
      "name": "getUserAccounts",
      "outputs": [
        {
          "name": "",
          "type": "address[]"
        }
      ],
      "payable": false,
      "stateMutability": "view",
      "type": "function"
    },
    {
      "constant": false,
      "inputs": [
        {
          "name": "_account",
          "type": "address"
        },
        {
          "name": "_provider",
          "type": "address"
        },
        {
          "name": "_hoursNeeded",
          "type": "uint8"
        },
        {
          "name": "_check",
          "type": "bool"
        }
      ],
      "name": "balanceSetCheck",
      "outputs": [],
      "payable": false,
      "stateMutability": "nonpayable",
      "type": "function"
    }
  ],
  "bytecode": "0x608060405234801561001057600080fd5b50611042806100206000396000f30060806040526004361061008e576000357c0100000000000000000000000000000000000000000000000000000000900463ffffffff1680635a86d7b014610093578063616d50581461010f5780637d57b1af1461017c57806381e7e20e14610263578063a3e05573146103c0578063a43e567a1461042f578063a7a0215b1461049b578063bfbf9177146104f6575b600080fd5b34801561009f57600080fd5b5061010d600480360381019080803573ffffffffffffffffffffffffffffffffffffffff169060200190929190803573ffffffffffffffffffffffffffffffffffffffff169060200190929190803560ff16906020019092919080351515906020019092919050505061058c565b005b34801561011b57600080fd5b5061013a60048036038101908080359060200190929190505050610839565b604051808273ffffffffffffffffffffffffffffffffffffffff1673ffffffffffffffffffffffffffffffffffffffff16815260200191505060405180910390f35b34801561018857600080fd5b50610261600480360381019080803590602001908201803590602001908080601f0160208091040260200160405190810160405280939291908181526020018383808284378201915050505050509192919290803560ff169060200190929190803560ff169060200190929190803573ffffffffffffffffffffffffffffffffffffffff169060200190929190803515159060200190929190803515159060200190929190803573ffffffffffffffffffffffffffffffffffffffff169060200190929190803515159060200190929190505050610877565b005b34801561026f57600080fd5b506102a4600480360381019080803573ffffffffffffffffffffffffffffffffffffffff169060200190929190505050610b17565b60405180806020018960ff1660ff1681526020018860ff1660ff1681526020018773ffffffffffffffffffffffffffffffffffffffff1673ffffffffffffffffffffffffffffffffffffffff16815260200186151515158152602001851515151581526020018473ffffffffffffffffffffffffffffffffffffffff1673ffffffffffffffffffffffffffffffffffffffff1681526020018315151515815260200182810382528a818151815260200191508051906020019080838360005b8381101561037e578082015181840152602081019050610363565b50505050905090810190601f1680156103ab5780820380516001836020036101000a031916815260200191505b50995050505050505050505060405180910390f35b3480156103cc57600080fd5b5061042d600480360381019080803515159060200190929190803573ffffffffffffffffffffffffffffffffffffffff169060200190929190803573ffffffffffffffffffffffffffffffffffffffff169060200190929190505050610c78565b005b34801561043b57600080fd5b50610444610d56565b6040518080602001828103825283818151815260200191508051906020019060200280838360005b8381101561048757808201518184015260208101905061046c565b505050509050019250505060405180910390f35b3480156104a757600080fd5b506104dc600480360381019080803573ffffffffffffffffffffffffffffffffffffffff169060200190929190505050610de4565b604051808215151515815260200191505060405180910390f35b34801561050257600080fd5b5061058a600480360381019080803590602001908201803590602001908080601f0160208091040260200160405190810160405280939291908181526020018383808284378201915050505050509192919290803573ffffffffffffffffffffffffffffffffffffffff169060200190929190803560ff169060200190929190505050610e3c565b005b60008060008673ffffffffffffffffffffffffffffffffffffffff1673ffffffffffffffffffffffffffffffffffffffff16815260200190815260200160002060010160009054906101000a900460ff1660ff161115156105ec57600080fd5b816000808673ffffffffffffffffffffffffffffffffffffffff1673ffffffffffffffffffffffffffffffffffffffff16815260200190815260200160002060010160009054906101000a900460ff16036000808673ffffffffffffffffffffffffffffffffffffffff1673ffffffffffffffffffffffffffffffffffffffff16815260200190815260200160002060010160006101000a81548160ff021916908360ff160217905550816000808573ffffffffffffffffffffffffffffffffffffffff1673ffffffffffffffffffffffffffffffffffffffff16815260200190815260200160002060010160009054906101000a900460ff16016000808573ffffffffffffffffffffffffffffffffffffffff1673ffffffffffffffffffffffffffffffffffffffff16815260200190815260200160002060010160006101000a81548160ff021916908360ff160217905550806000808673ffffffffffffffffffffffffffffffffffffffff1673ffffffffffffffffffffffffffffffffffffffff16815260200190815260200160002060020160146101000a81548160ff0219169083151502179055506000808573ffffffffffffffffffffffffffffffffffffffff1673ffffffffffffffffffffffffffffffffffffffff16815260200190815260200160002060010160009054906101000a900460ff1660ff167f6f0672862d909785e5c0f1f22f0f3b9c5b1d4b373f312edf45468e8e6a8b553860405160405180910390a26108336020604051908101604052806000815250856000610e3c565b50505050565b60018181548110151561084857fe5b906000526020600020016000915054906101000a900473ffffffffffffffffffffffffffffffffffffffff1681565b610100604051908101604052808981526020018860ff1681526020018760ff1681526020018673ffffffffffffffffffffffffffffffffffffffff168152602001851515815260200184151581526020018373ffffffffffffffffffffffffffffffffffffffff1681526020018215158152506000808773ffffffffffffffffffffffffffffffffffffffff1673ffffffffffffffffffffffffffffffffffffffff1681526020019081526020016000206000820151816000019080519060200190610944929190610ef1565b5060208201518160010160006101000a81548160ff021916908360ff16021790555060408201518160010160016101000a81548160ff021916908360ff16021790555060608201518160010160026101000a81548173ffffffffffffffffffffffffffffffffffffffff021916908373ffffffffffffffffffffffffffffffffffffffff16021790555060808201518160010160166101000a81548160ff02191690831515021790555060a08201518160010160176101000a81548160ff02191690831515021790555060c08201518160020160006101000a81548173ffffffffffffffffffffffffffffffffffffffff021916908373ffffffffffffffffffffffffffffffffffffffff16021790555060e08201518160020160146101000a81548160ff0219169083151502179055509050508315157f628d5b88a841bd962d7e59afbf2296c31aa505a89e43490aa39eaa1ca510d0d160405160405180910390a260018590806001815401808255809150509060018203906000526020600020016000909192909190916101000a81548173ffffffffffffffffffffffffffffffffffffffff021916908373ffffffffffffffffffffffffffffffffffffffff160217905550505050505050505050565b6000602052806000526040600020600091509050806000018054600181600116156101000203166002900480601f016020809104026020016040519081016040528092919081815260200182805460018160011615610100020316600290048015610bc35780601f10610b9857610100808354040283529160200191610bc3565b820191906000526020600020905b815481529060010190602001808311610ba657829003601f168201915b5050505050908060010160009054906101000a900460ff16908060010160019054906101000a900460ff16908060010160029054906101000a900473ffffffffffffffffffffffffffffffffffffffff16908060010160169054906101000a900460ff16908060010160179054906101000a900460ff16908060020160009054906101000a900473ffffffffffffffffffffffffffffffffffffffff16908060020160149054906101000a900460ff16905088565b826000808473ffffffffffffffffffffffffffffffffffffffff1673ffffffffffffffffffffffffffffffffffffffff16815260200190815260200160002060010160176101000a81548160ff021916908315150217905550806000808473ffffffffffffffffffffffffffffffffffffffff1673ffffffffffffffffffffffffffffffffffffffff16815260200190815260200160002060020160006101000a81548173ffffffffffffffffffffffffffffffffffffffff021916908373ffffffffffffffffffffffffffffffffffffffff160217905550505050565b60606001805480602002602001604051908101604052809291908181526020018280548015610dda57602002820191906000526020600020905b8160009054906101000a900473ffffffffffffffffffffffffffffffffffffffff1673ffffffffffffffffffffffffffffffffffffffff1681526020019060010190808311610d90575b5050505050905090565b60008060008373ffffffffffffffffffffffffffffffffffffffff1673ffffffffffffffffffffffffffffffffffffffff16815260200190815260200160002060010160179054906101000a900460ff169050919050565b826000808473ffffffffffffffffffffffffffffffffffffffff1673ffffffffffffffffffffffffffffffffffffffff1681526020019081526020016000206000019080519060200190610e91929190610f71565b50806000808473ffffffffffffffffffffffffffffffffffffffff1673ffffffffffffffffffffffffffffffffffffffff16815260200190815260200160002060010160016101000a81548160ff021916908360ff160217905550505050565b828054600181600116156101000203166002900490600052602060002090601f016020900481019282601f10610f3257805160ff1916838001178555610f60565b82800160010185558215610f60579182015b82811115610f5f578251825591602001919060010190610f44565b5b509050610f6d9190610ff1565b5090565b828054600181600116156101000203166002900490600052602060002090601f016020900481019282601f10610fb257805160ff1916838001178555610fe0565b82800160010185558215610fe0579182015b82811115610fdf578251825591602001919060010190610fc4565b5b509050610fed9190610ff1565b5090565b61101391905b8082111561100f576000816000905550600101610ff7565b5090565b905600a165627a7a7230582077405ac5ea5bbc0b34938b12b8c674554636ab240e779f4d6e96964771cfc70a0029",
  "source": " pragma solidity ^0.4.24;\n\n/**\n * \n */\ncontract TimeBank{\n  struct User {\n    string service;\n    uint8 deposit;\n    uint8 hoursNeeded;\n    address account;\n    bool initialized;\n    bool help;\n    address provider;\n    bool check;\n  }\n  event initializedEvent (\n    bool indexed _initialized\n    );\n  event balanceChange (\n    uint8 indexed deposit\n    );\n  mapping (address => User) public user;\n  address[] public userAccounts;\n  \n  function addUser(string _service, uint8 _deposit, uint8 _hoursNeeded, address _account, bool _initialized, bool _help, address _provider, bool _check) public {\n    user[_account] = User(_service, _deposit, _hoursNeeded, _account, _initialized, _help, _provider, _check);\n    emit initializedEvent(_initialized);\n    userAccounts.push(_account);\n  }\n  function setServiceHour(string _service, address _account, uint8 _hoursNeeded) public {\n    user[_account].service = _service;\n    user[_account].hoursNeeded = _hoursNeeded;\n  }\n  function setHelpProvider(bool _help, address _account, address _provider) public {\n    user[_account].help = _help;\n    user[_account].provider = _provider;\n   }\n   function getHelp(address _account) public view returns(bool){\n    return user[_account].help;\n   }\n  function getUserAccounts() public view returns(address[]) {\n    return userAccounts;\n  }\n  function balanceSetCheck(address _account, address _provider, uint8 _hoursNeeded, bool _check) public {\n    require (user[_account].deposit  > 0);\n    user[_account].deposit = user[_account].deposit - _hoursNeeded;\n    user[_provider].deposit = user[_provider].deposit + _hoursNeeded;\n    user[_account].check = _check;\n    emit balanceChange(user[_account].deposit);\n    setServiceHour('',_account,0);\n  }\n\n\n\n}\n\n\n",
  "sourcePath": "/Users/maclin/Sites/time_bank/contracts/TimeBank.sol",
  "compiler": {
    "name": "solc",
    "version": "0.4.24+commit.e67f0147.Emscripten.clang"
  },
  "schemaVersion": "2.0.1",
  "updatedAt": "2018-11-26T21:34:30.060Z"
}