{
  "contractName": "tokenSale",
  "abi": [
    {
      "constant": true,
      "inputs": [],
      "name": "tokensSold",
      "outputs": [
        {
          "name": "",
          "type": "uint256"
        }
      ],
      "payable": false,
      "stateMutability": "view",
      "type": "function"
    },
    {
      "constant": true,
      "inputs": [],
      "name": "tokenContract",
      "outputs": [
        {
          "name": "",
          "type": "address"
        }
      ],
      "payable": false,
      "stateMutability": "view",
      "type": "function"
    },
    {
      "inputs": [
        {
          "name": "_tokenContract",
          "type": "address"
        }
      ],
      "payable": false,
      "stateMutability": "nonpayable",
      "type": "constructor"
    },
    {
      "anonymous": false,
      "inputs": [
        {
          "indexed": false,
          "name": "_buyer",
          "type": "address"
        },
        {
          "indexed": false,
          "name": "amount",
          "type": "uint256"
        }
      ],
      "name": "Sell",
      "type": "event"
    },
    {
      "constant": false,
      "inputs": [
        {
          "name": "_numberofTokens",
          "type": "uint256"
        }
      ],
      "name": "buyTokens",
      "outputs": [],
      "payable": true,
      "stateMutability": "payable",
      "type": "function"
    }
  ],
  "bytecode": "0x608060405234801561001057600080fd5b5060405160208061046583398101806040528101908080519060200190929190505050806000806101000a81548173ffffffffffffffffffffffffffffffffffffffff021916908373ffffffffffffffffffffffffffffffffffffffff160217905550506103e2806100836000396000f300608060405260043610610057576000357c0100000000000000000000000000000000000000000000000000000000900463ffffffff1680633610724e1461005c578063518ab2a81461007c57806355a373d6146100a7575b600080fd5b61007a600480360381019080803590602001909291905050506100fe565b005b34801561008857600080fd5b5061009161038b565b6040518082815260200191505060405180910390f35b3480156100b357600080fd5b506100bc610391565b604051808273ffffffffffffffffffffffffffffffffffffffff1673ffffffffffffffffffffffffffffffffffffffff16815260200191505060405180910390f35b806000809054906101000a900473ffffffffffffffffffffffffffffffffffffffff1673ffffffffffffffffffffffffffffffffffffffff166370a08231306040518263ffffffff167c0100000000000000000000000000000000000000000000000000000000028152600401808273ffffffffffffffffffffffffffffffffffffffff1673ffffffffffffffffffffffffffffffffffffffff168152602001915050602060405180830381600087803b1580156101bb57600080fd5b505af11580156101cf573d6000803e3d6000fd5b505050506040513d60208110156101e557600080fd5b81019080805190602001909291905050501015151561020357600080fd5b6000809054906101000a900473ffffffffffffffffffffffffffffffffffffffff1673ffffffffffffffffffffffffffffffffffffffff1663a9059cbb33836040518363ffffffff167c0100000000000000000000000000000000000000000000000000000000028152600401808373ffffffffffffffffffffffffffffffffffffffff1673ffffffffffffffffffffffffffffffffffffffff16815260200182815260200192505050602060405180830381600087803b1580156102c757600080fd5b505af11580156102db573d6000803e3d6000fd5b505050506040513d60208110156102f157600080fd5b8101908080519060200190929190505050151561030d57600080fd5b806001600082825401925050819055507f5e5e995ce3133561afceaa51a9a154d5db228cd7525d34df5185582c18d3df093382604051808373ffffffffffffffffffffffffffffffffffffffff1673ffffffffffffffffffffffffffffffffffffffff1681526020018281526020019250505060405180910390a150565b60015481565b6000809054906101000a900473ffffffffffffffffffffffffffffffffffffffff16815600a165627a7a723058206aa8a000c927562aa97edc1b246040c10b77a4d3c85edd5146a0b1268f576bfa0029",
  "source": "pragma solidity ^0.4.24;\n\nimport \"./TimeBankToken.sol\";\n\n/**\n * user can buy tokens from here\n */\ncontract tokenSale {\n\n  TimeBankToken public tokenContract;\n  uint256 public tokensSold;\n  event Sell(address _buyer, uint256 amount);\n  function tokenSale (TimeBankToken _tokenContract) {\n    tokenContract = _tokenContract;\n  }  \n\n  function buyTokens(uint256 _numberofTokens) public payable {\n\n    require(tokenContract.balanceOf(this) >= _numberofTokens);\n    require(tokenContract.transfer(msg.sender, _numberofTokens));\n    tokensSold += _numberofTokens;\n    Sell(msg.sender, _numberofTokens);\n  }\n\n}\n\n\n",
  "sourcePath": "/Users/maclin/Sites/time_bank/contracts/tokenSale.sol",
  "compiler": {
    "name": "solc",
    "version": "0.4.24+commit.e67f0147.Emscripten.clang"
  },
  "schemaVersion": "2.0.1",
  "updatedAt": "2018-11-16T22:44:35.199Z"
}