{
  "contractName": "tokenStorage",
  "abi": [
    {
      "constant": true,
      "inputs": [],
      "name": "totalTokenSupply",
      "outputs": [
        {
          "name": "",
          "type": "address"
        }
      ],
      "payable": false,
      "stateMutability": "view",
      "type": "function"
    },
    {
      "inputs": [
        {
          "name": "_totalTokenSupply",
          "type": "address"
        }
      ],
      "payable": false,
      "stateMutability": "nonpayable",
      "type": "constructor"
    }
  ],
  "bytecode": "0x608060405234801561001057600080fd5b5060405160208061016b83398101806040528101908080519060200190929190505050806000806101000a81548173ffffffffffffffffffffffffffffffffffffffff021916908373ffffffffffffffffffffffffffffffffffffffff1602179055505060e9806100826000396000f300608060405260043610603f576000357c0100000000000000000000000000000000000000000000000000000000900463ffffffff1680631ca8b6cb146044575b600080fd5b348015604f57600080fd5b5060566098565b604051808273ffffffffffffffffffffffffffffffffffffffff1673ffffffffffffffffffffffffffffffffffffffff16815260200191505060405180910390f35b6000809054906101000a900473ffffffffffffffffffffffffffffffffffffffff16815600a165627a7a7230582060f5360f615927c6bea11abed6c1df028d98a1b87fb2cf4f5371fed492258ea10029",
  "source": "pragma solidity ^0.4.24;\n\nimport \"./TimeBankToken.sol\";\n\n/**\n * The tokenStorage contract does this and that...\n */\ncontract tokenStorage {\n  TimeBankToken public totalTokenSupply;\n  \n  function tokenStorage (TimeBankToken _totalTokenSupply) {\n    totalTokenSupply = _totalTokenSupply;\n  }  \n}\n\n\n",
  "sourcePath": "/Users/maclin/Sites/time_bank/contracts/tokenStorage.sol",
  "compiler": {
    "name": "solc",
    "version": "0.4.24+commit.e67f0147.Emscripten.clang"
  },
  "schemaVersion": "2.0.1",
  "updatedAt": "2018-11-14T17:03:49.182Z"
}