{
  "contractName": "userService",
  "abi": [
    {
      "constant": true,
      "inputs": [],
      "name": "initialized",
      "outputs": [
        {
          "name": "",
          "type": "bool"
        }
      ],
      "payable": false,
      "stateMutability": "view",
      "type": "function"
    },
    {
      "constant": true,
      "inputs": [],
      "name": "tokensNeeded",
      "outputs": [
        {
          "name": "",
          "type": "uint8"
        }
      ],
      "payable": false,
      "stateMutability": "view",
      "type": "function"
    },
    {
      "constant": true,
      "inputs": [],
      "name": "service",
      "outputs": [
        {
          "name": "",
          "type": "string"
        }
      ],
      "payable": false,
      "stateMutability": "view",
      "type": "function"
    },
    {
      "inputs": [],
      "payable": false,
      "stateMutability": "nonpayable",
      "type": "constructor"
    },
    {
      "constant": false,
      "inputs": [
        {
          "name": "_initialized",
          "type": "bool"
        }
      ],
      "name": "setInitialization",
      "outputs": [],
      "payable": false,
      "stateMutability": "nonpayable",
      "type": "function"
    },
    {
      "constant": false,
      "inputs": [
        {
          "name": "_service",
          "type": "string"
        }
      ],
      "name": "setService",
      "outputs": [],
      "payable": false,
      "stateMutability": "nonpayable",
      "type": "function"
    }
  ],
  "bytecode": "0x608060405234801561001057600080fd5b5060008060006101000a81548160ff021916908315150217905550602060405190810160405280600081525060019080519060200190610051929190610073565b506000600260006101000a81548160ff021916908360ff160217905550610118565b828054600181600116156101000203166002900490600052602060002090601f016020900481019282601f106100b457805160ff19168380011785556100e2565b828001600101855582156100e2579182015b828111156100e15782518255916020019190600101906100c6565b5b5090506100ef91906100f3565b5090565b61011591905b808211156101115760008160009055506001016100f9565b5090565b90565b6103c4806101276000396000f30060806040526004361061006d576000357c0100000000000000000000000000000000000000000000000000000000900463ffffffff168063158ef93e1461007257806320c32d76146100a15780635116223b1461010a57806361def69414610139578063d598d4c91461016a575b600080fd5b34801561007e57600080fd5b506100876101fa565b604051808215151515815260200191505060405180910390f35b3480156100ad57600080fd5b50610108600480360381019080803590602001908201803590602001908080601f016020809104026020016040519081016040528093929190818152602001838380828437820191505050505050919291929050505061020c565b005b34801561011657600080fd5b50610137600480360381019080803515159060200190929190505050610226565b005b34801561014557600080fd5b5061014e610242565b604051808260ff1660ff16815260200191505060405180910390f35b34801561017657600080fd5b5061017f610255565b6040518080602001828103825283818151815260200191508051906020019080838360005b838110156101bf5780820151818401526020810190506101a4565b50505050905090810190601f1680156101ec5780820380516001836020036101000a031916815260200191505b509250505060405180910390f35b6000809054906101000a900460ff1681565b80600190805190602001906102229291906102f3565b5050565b806000806101000a81548160ff02191690831515021790555050565b600260009054906101000a900460ff1681565b60018054600181600116156101000203166002900480601f0160208091040260200160405190810160405280929190818152602001828054600181600116156101000203166002900480156102eb5780601f106102c0576101008083540402835291602001916102eb565b820191906000526020600020905b8154815290600101906020018083116102ce57829003601f168201915b505050505081565b828054600181600116156101000203166002900490600052602060002090601f016020900481019282601f1061033457805160ff1916838001178555610362565b82800160010185558215610362579182015b82811115610361578251825591602001919060010190610346565b5b50905061036f9190610373565b5090565b61039591905b80821115610391576000816000905550600101610379565b5090565b905600a165627a7a723058206a4e74dcf27fca8471f4468364f91bc7b35cccc316e121710a9ef76e476135030029",
  "source": "pragma solidity ^0.4.24;\n\nimport \"./TimeBankToken.sol\";\n\n/**\n * The TimeBank contract does this and that...\n */\ncontract userService {\n  bool public initialized;\n  string public service;\n  uint8 public tokensNeeded;\n\n  mapping (address => userService) userProfile;\n     \n  function userService() public {\n    initialized = false;\n    service = '';\n    tokensNeeded = 0;\n  } \n  \n  function setInitialization(bool _initialized) public {\n    initialized = _initialized;\n  }\n\n  function setService(string _service) public {\n    service = _service;\n  }  \n\n}\n",
  "sourcePath": "/Users/maclin/Sites/time_bank/contracts/userService.sol",
  "compiler": {
    "name": "solc",
    "version": "0.4.24+commit.e67f0147.Emscripten.clang"
  },
  "schemaVersion": "2.0.1",
  "updatedAt": "2018-11-16T22:44:35.198Z"
}